:100000003721000013054013EF00404EEF00803011
:10001000EF00801E330405001305F013EF00004DC0
:10002000EF00C0293309050033050900EF008045C2
:10003000930E0004630CD90713054013EF00004B27
:10004000EF00402DEF00401BB3090500930EA00206
:100050006300D903930EF0026306D903930EB00236
:10006000630ED903930ED002630ED9036FF05FF9CC
:1000700033050400B3850900EF00003CB30405001C
:100080006F00C0056380090433050400B3850900CF
:10009000EF00401CB30405006F004004B3043401BA
:1000A0006F00C003B30434416F0040033305040004
:1000B000EF004048930EF0FF630CD501B304050038
:1000C0006F00C00113058015EF0040426FF05FF331
:1000D00013053017EF0080416FF09FF21305C01435
:1000E000EF00C04033850400EF00800CB30405002E
:1000F00093D2C40193F2F200930EA0006384D20164
:100100006F00C0001305D002EF00C037130E70005F
:100110009394440093D2C40193F2F20093820203B9
:1001200033850200EF000036130EFEFFE3120EFED1
:100130006FF01FED0A0D4E756D6265723A20000A70
:100140000D4F70657261746F723A20000A0D52652E
:1001500073756C74203D20000A0D4572726F723AFF
:10016000206469766973696F6E20706F72206365B1
:10017000726F000A0D4572726F723A207261697A6D
:10018000206465206E756D65726F206E65676174A1
:1001900069766F004119000000726973637600018F
:1001A0000F000000057276333269327030000000B3
:1001B000B701410023A2A1001305100023A4A10050
:1001C00023A401009302100003A301013373530021
:1001D000E30A03FE03A5C100678000004119000087
:1001E00000726973637600010F00000005727633B8
:1001F00032693270300000001301C1FF232011006A
:10020000B702460023A2A2009305100023A4B20067
:1002100023A4020083A5020193F51500E38C05FEDB
:1002200003A5C200131585001355854083200100E6
:1002300013014100678000004119000000726973DA
:10024000637600010F000000057276333269327068
:1002500030000000B701430023A2A10023A4B10095
:100260001305100023A6A10023A60100930210008D
:1002700003A3810133735300E30A03FE03A50101C5
:100280006780000041190000007269736376000105
:100290000F000000057276333269327030000000C2
:1002A0004119000000726973637600010F000000BD
:1002B000057276333269327030000000130101FF9D
:1002C0002320510023221100B701400003A50101A2
:1002D00093720510E38C02FE9302200023A85100C4
:1002E00003A581001375F50F8320410083220100CF
:1002F0001301010167800000411900000072697359
:10030000637600010F0000000572763332693270A7
:1003100030000000130181FE232A110023288100F0
:100320002326910023242101232251002320610050
:100330001304000093040000EFF05FF89302D00272
:100340006318550093041000EF00C0136F00800481
:10035000330905009302A000630459089302D000FA
:100360006300590893020002630C590693020003CC
:10037000634259029302900363CE220133050900C0
:10038000EF004010330509001375F5001314440005
:100390003364A400EFF09FF2330905009302A0003C
:1003A000630059049302D000630C590293020002C7
:1003B0006308590293020003E34E59FC9302900331
:1003C000E3CA22FD33050900EF00C00B3305090025
:1003D0001375F500131444003364A4006FF09FFB01
:1003E0001303C0019302F000638404009302A00091
:1003F000B392620033645400330504000323010008
:1004000083224100032981008324C10003240101C8
:100410008320410113018101678000004119000020
:1004200000726973637600010F0000000572763375
:100430003269327030000000B701440023A2A100ED
:1004400023A4B1001305100023A6A10023A60100D8
:100450009302100003A3410133735300E30A03FE28
:1004600003A5010167800000411900000072697353
:10047000637600010F000000057276333269327036
:1004800030000000130101FF2320510023226100EE
:1004900023241100B701400023A4A10093021000FF
:1004A00023A851009302000023A8510093020020CA
:1004B00003A3010133735300E31C03FE8320810077
:1004C0000323410083220100130101016780000022
:1004D0004119000000726973637600010F0000008B
:1004E0000572763332693270300000001301C1FFAB
:1004F000232011009303050003C5030063080500D2
:10050000EFF05FF8938313006FF01FFF832001006B
:1005100013014100678000004119000000726973F7
:10052000637600010F000000057276333269327085
:1005300030000000635E05001301C1FF232011009D
:1005400083200100130141001305F0FF67800000C4
:10055000B702420023A2A2009305100023A4B20018
:1005600023A4020003A3020113731300E30C03FE90
:1005700003A5C20067800000411900000072697382
:10058000637600010F000000057276333269327025
:1005900030000000B7014000372100009302E00363
:1005A00023A2510013054001EF00000F9302D00376
:1005B00023A2510013054001EF00000E9302B00387
:1005C00023A2510013054001EF00000D93027003B8
:1005D00023A2510013054001EF00000C9302F0022A
:1005E00023A2510013054001EF00000B9302F0011C
:1005F00023A2510013054001EF00000A9302F0020C
:1006000023A2510013054001EF000009930270037B
:1006100023A2510013054001EF0000089302B0032C
:1006200023A2510013054001EF0000079302D003FD
:1006300023A2510013054001EF0000069302E003DE
:1006400023A2510013054001EF0000051305806649
:10065000EFF0DFE9EFF09FC6EFF0DFE21305A00057
:10066000EFF05FE26FF09FF348656C6C6F2C2041F8
:10067000534D20776F726C640A0D00411900000021
:10068000726973637600010F0000000572763332E1
:1006900069327030000000001301C1FF23205100B7
:1006A00093021000B392A2009382F2FFE39E02FE37
:1006B00083220100130141006780000041190000FE
:1006C00000726973637600010F00000005727633D3
:0606D000326932703000B7
:040000030000059460
:00000001FF
